:1000000014C021C020C01FC01EC01DC043C01BC0E3
:100010001AC019C018C017C016C015C014C013C02C
:1000200012C011C010C00FC00EC011241FBECFEDF2
:10003000CDBF20E0A0E6B0E001C01D92AC36B20713
:10004000E1F772D02AC1DCCF0F931F93AB01BC0143
:100050008FB7F894009165001091660020916700B9
:10006000309168008FBFEFB7F89480916500909150
:100070006600A0916700B0916800EFBF801B910BF4
:10008000A20BB30B84179507A607B70760F31F9160
:100090000F9108951F920F920FB60F9211242F9374
:1000A0003F938F939F93AF93BF93809165009091FF
:1000B0006600A0916700B0916800309164002CE068
:1000C000230F2D3768F12FE8230F0596A11DB11DD1
:1000D000209364008093650090936600A09367006E
:1000E000B09368008091600090916100A0916200DF
:1000F000B09163000196A11DB11D809360009093A3
:100100006100A0936200B0936300BF91AF919F9193
:100110008F913F912F910F900FBE0F901F901895C8
:100120000496A11DB11DD4CF83E080BF82E083BFC0
:10013000789489B7826089BF8FEF81BB8B988C9848
:100140008D988A9812BA939A949A959A17BA18BA6F
:10015000D1E012E003E084E0F82E95E0D92E26E00D
:10016000C22EC8E037E0E32E40E8B42E50E4A52EBE
:1001700060E2962E70E1872E10926B0065E070E0D1
:1001800080E090E061DF909A919A929A90986AE06C
:1001900070E080E090E058DF839BD0936B00849BFD
:1001A00010936B00859B00936B00909A919A929AA2
:1001B00091986AE070E080E090E046DF839BF092E7
:1001C0006B00849BD0926B00859BC0926B00909AD1
:1001D000919A929A8A9A92986AE070E080E090E010
:1001E00033DF839BD0936A00849B10936A00859BC6
:1001F00000936A008A9890916A008091690098172C
:1002000051F0992331F09130A1F4823069F4E092F9
:100210006B009093690080916B00873060F58111CD
:1002200016C017BA18BAA8CF833099F7C0936B00DD
:10023000F0CF923029F4833051F38130B9F3E9CF14
:10024000933039F7813019F3823081F3E2CF813076
:1002500011F487BBE7CF8230E1F3833011F4F7BAB2
:10026000E1CF843011F4C7BBDDCF853011F487BAFC
:10027000D9CF97BAD7CF873071F4A7BA18BA68E741
:1002800070E080E090E0E0DE17BA68E270E080E0C5
:0E02900090E0DADE71CFB7BAF1CFF894FFCF6D
:00000001FF
